:020000040800F2
:10000000FF1F002045580008114E0008134E00083D
:1000100000000000000000000000000000000000E0
:10002000000000000000000000000000154E000865
:100030000000000000000000174E0008194E0008E4
:1000400095580008955800089558000895580008DC
:1000500095580008955800089558000895580008CC
:10006000000000009558000895580008214E00082F
:1000700095580008955800080000000095580008A1
:100080000000000000000000000000000000000070
:100090009558000800000000955800089558000881
:1000A000000000009558000800000000000000005B
:1000B0009558000895580008000000000000000056
:1000C00010B5064C2378002B07D1054B002B02D02E
:1000D000044800E000BF0123237010BDF801002098
:1000E00000000000E85C0008044B10B5002B03D0B2
:1000F0000349044800E000BF10BDC04600000000F6
:10010000FC010020E85C000802B47146490849007F
:10011000095C49008E4402BC7047C0460022430877
:100120008B4274D303098B425FD3030A8B4244D3BF
:10013000030B8B4228D3030C8B420DD3FF22090201
:1001400012BA030C8B4202D31212090265D0030BC0
:100150008B4219D300E0090AC30B8B4201D3CB03B6
:10016000C01A5241830B8B4201D38B03C01A5241F8
:10017000430B8B4201D34B03C01A5241030B8B42FA
:1001800001D30B03C01A5241C30A8B4201D3CB02E5
:10019000C01A5241830A8B4201D38B02C01A5241CA
:1001A000430A8B4201D34B02C01A5241030A8B42CD
:1001B00001D30B02C01A5241CDD2C3098B4201D3E5
:1001C000CB01C01A524183098B4201D38B01C01A63
:1001D000524143098B4201D34B01C01A52410309DA
:1001E0008B4201D30B01C01A5241C3088B4201D389
:1001F000CB00C01A524183088B4201D38B00C01A36
:10020000524143088B4201D34B00C01A5241411A5C
:1002100000D20146524110467047FFE701B5002069
:1002200000F006F802BDC0460029F7D076E7704717
:100230007047C0468446081C6146FFE71FB500F0C2
:1002400037FC002801D40021C8421FBD10B500F0C2
:10025000B9FB4042013010BD10B500F029FC002868
:1002600001DB002010BD012010BDC04610B500F01C
:100270001FFC002801DD002010BD012010BDC0467C
:1002800010B500F0C7FB002801DC002010BD0120E4
:1002900010BDC04610B500F0BDFB002801DA0020FB
:1002A00010BD012010BDC046002B11D1002A0FD176
:1002B000002900D1002802D00021C943081C07B43E
:1002C000024802A14018029003BDC04665FFFFFF2F
:1002D00003B4684601B5029800F006F8019B9E46FB
:1002E00002B00CBC7047C046F0B54F464646D646F5
:1002F000C0B5040082B00D00914698468B422FD8BD
:100300002CD04146484601F07BFA29000600200027
:1003100001F076FA331A9C46203B9A4600D576E0E7
:100320004B46524693401F004B46624693401E0088
:10033000AF4228D825D05346A41BBD41002B00DA7C
:100340007BE0002200230092019301235246934058
:100350000193012362469340009318E08242D0D972
:1003600000220023009201930A9B002B01D01C6005
:100370005D600098019902B01CBC90469946A24667
:10038000F0BDA342D7D90022002300920193634617
:10039000002BE9D0FB079846414672080A437B08C8
:1003A00066460EE0AB4201D1A2420CD8A41A9D4190
:1003B000012024196D410021013E24184D41002ED9
:1003C00006D0AB42EED9013E24196D41002EF8D182
:1003D00000980199534600196941002B23DB2B003B
:1003E0005246D3402A006446E2401C0053461500A2
:1003F000002B2DDB26005746BE4033002600674603
:10040000BE403200801A994100900191ACE76246EB
:1004100020239B1A4A46DA406146130042468A402E
:1004200017001F4380E7624620239B1A2A00664676
:100430009A402300F3401343D4E76246202300216F
:100440009B1A0022009101920122DA40019280E77A
:100450002023624626009B1ADE402F00B0466646E7
:10046000B74046463B003343C8E7C046F8B5474669
:10047000CE4643025B0A4400C20F9C464800DD00A2
:100480004B02240E5B0A000E80B59846260091466A
:10049000C90FDB00271A8A4229D0002F15DD00285A
:1004A0004AD1002B00D095E0ED08FF2C00D188E068
:1004B0006B025B0AE6B25B02F605580A3043D207CC
:1004C00010430CBC90469946F8BD002F00D087E041
:1004D000601CC0B2012800DCB6E0EE1A720100D543
:1004E000C5E0002E3DD1002200260023E3E7002FC7
:1004F00000DC96E000285DD0FF2C60D08022D20482
:1005000013431B2F00DDECE02022D21B1800934088
:10051000F8405A1E93410343ED186B017BD501341B
:10052000FF2C00D1B7E0012207262A406B089A4D24
:100530001D4015432E4029E0FF2CB5D08022D20467
:1005400013431B2F00DDB2E02022D21B1900934081
:10055000F9405A1E93410B43ED1A6B015BD5AD0177
:10056000AE09300001F02EF905388640844265DC82
:10057000041B330020200134E340041BA640751EF9
:10058000AE41334307261D0000241E4001224B4686
:100590001A40002E04D00F232B40042B00D004352A
:1005A0006B0100D480E70134E6B2FF2C2FD1FF2687
:1005B000002380E7002B52D1FF2C00D074E70A0003
:1005C000ED08002DF3D08023DB032B435B025B0A95
:1005D000FF2670E7013F002FBED0FF2CB1D163E7AB
:1005E000002C47D0FF2869D08024E4047A422543B8
:1005F0001B2A00DDC5E02C002026D440B21A95400D
:100600006A1E954125435D1B04008946A5E7AB01A1
:100610005B0A50E7002401224B461A406B07BAD10F
:1006200042E7002F3BD10134E0B201284ADDFF2C24
:10063000BDD00726ED186D082E40A7E70723574DBC
:10064000241A35401E40A1E7002C1BD1002D6ED18D
:10065000002B00D19AE00A001D003C0024E7013F76
:10066000002F00D158E7FF2C00D04AE7A7E75E1B18
:10067000894676E7002D1CD10A00FF281FD0040010
:100680001D0011E7002D5DD1002B17D18023002222
:10069000DB03FF260FE70A00FF2600230BE7002CF1
:1006A00021D1002D66D1FF28E9D11D0087E7012364
:1006B00052E77A1CA7D0FA43FF2899D10A001D00FF
:1006C000FF24F1E6002E21D1002D4FD0002B4CD07D
:1006D000ED186B019ED5314B07362E4001241D408D
:1006E00054E7012318E7FF28DFD08024E4047F4289
:1006F00025431B2F4DDC2026F61B2C00B540FC406B
:100700006A1E95412543ED18040006E7002DCCD064
:10071000002B00D153E780216046C903084203D073
:100720004046084200D11D000121114047E7002B3F
:1007300000D1B9E6EA1A500125D507265D1B2E40E7
:10074000894623E7FF24002B00D1ADE680226046D6
:10075000D203104204D04046104201D11D00894608
:1007600001224B46FF241A409EE62B00DD080A00BA
:1007700000249DE67A1CC6D0FF43FF28B9D11D0096
:100780001DE701253FE7151E00D044E700220023A6
:1007900091E60125B7E7C046FFFFFF7DFFFFFFFBA6
:1007A000F8B557464E464546DE464402E0B546009B
:1007B0008846640A360EC70F002E63D0FF2E24D061
:1007C0008023E400DB041C43002399469B467F3EC4
:1007D000434642465D02D20F5B006D0A1B0E9046F7
:1007E000924665D0FF2B55D080220021ED00D20427
:1007F0007F3B1543F61A43464A467B400F2A00D9F1
:100800008DE06D48920082589746002C54D1082301
:100810009946063BFF269B46DAE700255346022908
:100820001BD0032900D1BFE0012928D030007F3040
:10083000002820DD6A0704D00F222A40042A00D0B5
:1008400004352A0103D530005C4A80301540FE286B
:1008500003DCAC01640AC2B201E0FF22002464029E
:10086000D205600ADB07104318433CBC904699460A
:10087000A246AB46F8BD0122101A1B287CDD0022DF
:100880000024ECE7002C1DD104239946033B0026ED
:100890009B469DE7FF3E002D20D1022143464A465C
:1008A0007B400A430F2AD8D8454892008258974681
:1008B000002D19D10121F1E70C239946093BFF26B0
:1008C0009B4685E7200000F07DFF7626431F9C4075
:1008D00000237642361A99469B4679E74A46032317
:1008E0001A439146032186E7280000F06BFF431F5F
:1008F00036189D40763600217DE780240023E403EE
:10090000FF22ACE700258023DB031C4228D01D42D8
:1009100026D12B435C02640A4346FF229FE7620113
:100920006C01A24224D21B210025013E01271000A8
:100930006D005200002801DB944201D8121B3D4398
:1009400001390029F3D11400621E944125436DE75B
:10095000BA46594625005346022900D061E77CE794
:100960008023DB031C436402640A3B00FF2276E71A
:10097000121B1A210125D9E79E362A00B5402C000A
:10098000C240651EAC411443620704D00F222240CE
:10099000042A00D00434620103D4A401640A0022B2
:1009A0005DE7012200245AE78024E4032C4364021B
:1009B000640AFF2253E7C046005D0008FFFFFFF70F
:1009C000405D000870B542004E024C0045026D0AC1
:1009D000120EC30F760A240EC90FFF2A0FD0FF2C68
:1009E00011D00120A24200D070BDB542FCD18B4293
:1009F0000DD0002AF8D12800451EA841F4E70120B7
:100A0000002DF1D1EBE70120002EEDD1E9E7002028
:100A1000EAE7C04670B54A004E02450244006D0A3E
:100A2000240EC30F760A120EC90FFF2C15D0FF2A11
:100A30000ED0002C15D1002A01D1002E1CD0002D83
:100A400014D08B4227D00220013B1840013870BDE2
:100A5000002EEED002204042F9E7002DFAD1FF2A05
:100A60000ED0002A0ED1002EEDD00BE0012301396B
:100A7000994308000130EAE70020002DE7D0E2E7C3
:100A8000002EE7D18B42DED1944205DD0221581EB3
:100A900008400138DBE70024A24204DCB542D2D88A
:100AA0000020B542D3D2581E012398430130CEE72F
:100AB00030B5420044024D02C30F4800640A120ED2
:100AC0006D0A000EC90FFF2A12D0FF280CD0002A91
:100AD00012D1002819D1002D17D1002C2BD00220C3
:100AE000013B1840013826E0002DF0D0022022E022
:100AF000002CFBD1FF281FD000281FD1002D1DD1B5
:100B00000220013B1840013815E0002C0ED08B422A
:100B1000E5D10022904204DCAC42E0D80020AC4297
:100B200009D2581E01239843013004E00123013902
:100B300099430800013030BD002DD7D18B42CED172
:100B40008242E7DD0221581E08400138F3E7C04623
:100B5000F0B54E4657464546DE46E0B543025B0AD1
:100B6000450083B00F1C99462D0EC60F002D57D09F
:100B7000FF2D24D08020DB00C004184300238146D1
:100B80009A469B467F3D7C027A00FB0F640A120E58
:100B9000984623D0FF2A4BD0E30080240020E404B1
:100BA0007F3A1C43AD186B1C474601935346774070
:100BB0003A000F2B48D87D499B00CB589F46002B0D
:100BC00000D085E008339A46063B9B467C027A00BB
:100BD000FB0FFF25640A120E9846DBD1002C00D0D3
:100BE00090E0524601231A4392460120DBE74C462F
:100BF00058461700022824D0032800D1CFE0002255
:100C0000002301284DD15802D205400AFF071043A6
:100C1000384303B03CBC90469946A246AB46F0BD73
:100C2000002B5BD104239A46033B00259B46AAE791
:100C3000FF35002C60D1524602231A43924602200F
:100C4000B1E7FF220023DEE74B461B0C9C464B46D8
:100C50002604360C180461463300220C6446000C4E
:100C600043434E435043544380191A0C1218964282
:100C700003D9802149028C4664441B041B0C1004D8
:100C8000C01883015E1EB341800E1843130C1B195C
:100C90009B0103431C00230179D5012362081C40FA
:100CA0001443019A7F32002A4DDD630704D00F23DD
:100CB0002340042B00D00434230103D53C4B019A7C
:100CC0001C408032FE2ABCDCA3015B0AD2B29AE748
:100CD0000C239A46093BFF259B4654E7180000F079
:100CE00071FD4A46431F76259A4000236D42914686
:100CF0002D1A9A469B4646E7524603231A439246CC
:100D0000032050E7200000F05DFD431F2D1A9C409A
:100D1000763D002047E780230027DB03FF2272E7B0
:100D2000424666E74C463200584662E780234A4610
:100D3000DB031A4222D01C4220D123435B025B0A10
:100D40004746FF225FE701239A1A1B2A21DC230072
:100D50000199D3409E318C401A0023005C1EA341B0
:100D600013435A0704D00F221A40042A00D0043338
:100D70005A0111D49B015B0A002244E780234A46B2
:100D8000DB0313435B025B0A3700FF223BE701955D
:100D900087E70022002336E70122002333E7802380
:100DA000DB0323435B025B0AFF222CE7805D000824
:100DB000FFFFFFF7F8B54746CE464400C20F80B5A7
:100DC00047024802400A8446664648007F0A240ECD
:100DD000F60025009046FB00000EC90FB146FF2823
:100DE00000D185E001267140261A914257D0002E8D
:100DF00043DD002800D07FE04946002900D1AAE069
:100E0000013E002E00D0F7E05B1A5A0100D48BE0BF
:100E10009B019C09200000F0D5FC053884408542E8
:100E200000DDD3E0451B230020200135EB40451BAE
:100E3000AC40621E94412343072400251C4001223C
:100E400041460A40002C04D00F211940042900D04B
:100E50000433590100D480E00135ECB2FF2D00D0FD
:100E6000A3E0FF2400235B02E405580AD2072043D5
:100E700010430CBC90469946F8BD002E74D1601CFE
:100E8000C0B2012800DCA7E04A469C1A620100D5E6
:100E9000B6E0002CBED1002200240023E3E7002EA0
:100EA00000DC85E0002846D0FF2C49D0802248464F
:100EB000D2041043814601221B2E09DC20204C461F
:100EC000801B84404A462000F240441EA041024359
:100ED0009B185A0128D50135FF2D00D1A8E0012229
:100EE000072494491A405B080B4013431C40A6E7B3
:100EF000002E00D078E775E7FF2C54D080224946B9
:100F0000D2041143894601221B2E09DC20214846C8
:100F1000891B88404A460100F240481E81410A432D
:100F20009B1A5A0100D573E7012241460A4059072E
:100F300000D089E711E04846002858D1FF2C0CD199
:100F4000DB08002B00D18CE78020C00303435B0249
:100F50005B0AFF2487E7FF2C25D0DB08FF2DF0D0AC
:100F60005B025B0AECB27EE7002C4DD0FF2818D064
:100F70008024E404724223431B2A00DDC4E01C00E9
:100F80002025D440AA1A93405A1E934123434A462F
:100F90000500D31A884638E7721CF8D0F243FF28C0
:100FA000EAD10A004B46FF25D7E79B015B0A5AE7C7
:100FB000002E41D1651CE9B2012945DDFF2D00D18C
:100FC0004FE707244B445B081C4038E707225A4B85
:100FD0002D1A2340144032E7002C1DD1002B7AD16A
:100FE0004B46002B00D191E00A000025B5E7013EF9
:100FF000002E19D14B446CE7FF2C84D1FF25ACE7C0
:101000004A468846D41A05E7002BC5D10A00FF28B6
:10101000C8D005004B46A0E7002B49D14B46002B1A
:1010200077D00A00FF2598E7FF2C00D043E787E739
:101030000A00FF24002316E7002C15D1002B57D1FE
:10104000FF28E6D14B467BE7002C20D1002B57D060
:101050004946002953D04B445A0168D50724364AE3
:101060001C4001251340EAE6FF28EBD08022D20481
:10107000764213431B2E53DC2025AD1B1A00AB40D8
:10108000F2405C1EA34113434B44050021E7002BB3
:10109000D8D04946002900D152E78021C9030F4228
:1010A00000D14DE76046084200D049E74B4647E78C
:1010B0004846FF25002800D14FE78022D20317427F
:1010C00004D06046104201D14B4688460122414679
:1010D000FF250A4041E7484600281FD01A1A500150
:1010E00020D54A460724D31A1C4088460025A6E688
:1010F000741CC9D0F643FF28BCD14B4620E7994663
:101100004B460025DB082BE7012340E700220023A4
:10111000A9E680230022DB03FF24A4E600251CE7C8
:101120000123B1E7002AF1D013000025FCE60025D9
:10113000FAE6C046FFFFFF7DFFFFFFFB70B500280A
:101140003DD0C317C5185D40C40F280000F03AFB1E
:101150009E22121A962A07DCD2B2082833DD0838FC
:1011600085406802400A23E0992A0BDD0523290007
:101170001B1AD94003001B339D402B005D1EAB4161
:1011800019430D00052801DD431F9D402B000F4929
:101190000B406E0709D00F263540042D05D00433CF
:1011A0005D0102D59F220B40121A9B01580AD2B250
:1011B0004002D205400AE4071043204370BD0024DA
:1011C00000220020F4E76802400AF1E7FFFFFFFB7E
:1011D000F0B55746DE464E464546E0B58346060026
:1011E0000F03480087B092461D003F0B400DCC0F07
:1011F000002800D16FE0DE4B984238D08023FF00FA
:101200001B041F43730F3B430193DA4B002799469E
:1012100000239B46F60081442B0369001B0B5246BA
:101220009846490DED0F002900D185E0D04B994239
:1012300000D173E04346DA0080231B041343524677
:10124000CC48520F84461343524600206144D200DA
:1012500089442100694000918C46012149448A4615
:101260000F2F00D990E0C449BF00CF59BF465B465D
:101270003B43019300D06AE1022308270026814600
:101280009B46C9E732005846019B614600910228FF
:1012900000D175E0032800D1FEE1012800D02CE147
:1012A00000230027002600253F032A0D3F0BB348EB
:1012B00012053A4302401B051343009A5B00D10715
:1012C0005B080B433000190007B03CBC90469946C0
:1012D000A246AB46F0BD5B463B43019300D12FE1F4
:1012E000002F00D1A5E1380000F06CFA03000B3BA1
:1012F0001C2B00DD96E11D22D31A5A460100DA406C
:101300005E4608398F4013008E403B4301939C4B4F
:1013100000271B1A994600239B467DE7414653460A
:101320000B4393498C46E144002B00D01AE1022282
:101330000220174300228CE7134300D10DE14346FE
:10134000002B00D181E1404600F03CFA02000B3A4C
:101350001C2A00DD72E10100434608398B409846A3
:101360001D239A1A5346D3401A004346134352464C
:101370008A404946081A824989468144002068E724
:101380007B4B002700268EE7140C1204120C110070
:10139000370C3604350C794328008C462E00604308
:1013A0006044834656432100300C804658467943BA
:1013B00040440291844506D98846802149028C46E2
:1013C000E044414602913604010C360C00048B4681
:1013D00081191E0C1B041B0C0391190079438C46C8
:1013E000280075436544A8465843050C4544774397
:1013F000A94203D9802149028C466744290C8C46B6
:1014000039000004000C2D042D186144AB440591F3
:101410005946049101990F043F0C080C39005143BF
:101420004243904602008C46090C8B4662437C4343
:1014300044445C44A04503D9802149028846424483
:10144000210C884661460904090C8C463900594331
:10145000434370437E430F0CF6182404BE196444C2
:1014600042448C46B34203D980235B0298464044F1
:10147000029B61469846049B370443449B46AB4518
:10148000AD416B420D0405992D0C8C467F196744C4
:10149000FD18A8465D462D19A542A4419346644215
:1014A000A446C344DC448F42BF4198459B419345C9
:1014B0009241A445A4415B427F421F43360C5242F5
:1014C0006442BF192243BF18624638184302D20D46
:1014D000039913436A020A43501E82416146ED0D8F
:1014E0002A434E023243D90100D4B3E0012650080A
:1014F00032400243DE0732435B08224C5444002C46
:1015000062DD510709D00F201040042805D0101DBE
:101510009042924152429B180200D90104D5802486
:101520001948E400034054441848844200DD27E78A
:101530005E075B02D2081F0B630516435B0DB2E624
:10154000002399460133042700269B4664E60323C3
:10155000019781460C279B465EE601220120174336
:10156000002276E6032303201F43434671E6C0466C
:10157000FF07000001FCFFFFC05D0008FFFF0F80B8
:101580000DFCFFFFFF030000FFFFFFFEFE07000052
:101590000023802700933F030026434B83E6019BF3
:1015A0003200A446584670E6AC466EE680270199A4
:1015B0003F0339422DD03B422BD11F433F033F0B0A
:1015C00000951600384B6EE601252D1B382D00DDE9
:1015D00066E61F2D40DC35481C0050441600824052
:1015E0008440EE40501E824134431443EB40620776
:1015F00009D00F222240042A05D02200141D944253
:10160000804140421B181A023ED5012300270026C4
:1016100049E68027019B3F031F433F033F0B009494
:10162000214B40E603005A46283B9A40002601928F
:101630006DE6584600F0C6F8203057E603005246E3
:10164000283B9A401300002293E6504600F0BAF877
:1016500020307BE6CA4650E71F201E004042041B94
:10166000E640202D03D0124C5444A3401A43501E90
:101670008241324307260027164009D00F2000235D
:10168000104014000428B9D122005E075B021F0B32
:10169000D2081643002306E680273F031F433F037B
:1016A0003F0B1600004BFEE5FF0700001E04000084
:1016B0003E04000030B5144D0A034B00120B5B0DC5
:1016C000C90F0024AB4211DD104CA34210DC802472
:1016D000640322430E4CE41A1F2C0CDD0D48C31A80
:1016E000DA4013005C42002900D11C00200030BD0C
:1016F000094BCC18FAE7094DE040AC4663449A40E8
:1017000013000343EEE7C046FE0300001D04000083
:101710003304000013040000FFFFFF7FEDFBFFFF19
:101720004100090E4B1C70B5DBB24602750AC40FAE
:10173000012B14DDE0239B006D07360BCB18002135
:101740000A0D280012051C4D32435B052A405B0838
:1017500013435B00E4075B082343190070BD0029B5
:1017600014D1002D1ED0280000F02CF80A281CDC13
:101770000B232A001B1ADA40030015339D400F4B40
:1017800012031B1A5B05160B5B0DD8E7002D06D064
:10179000320B802636036D071643094BCFE7084B03
:1017A0000026CCE700230026C9E703002A000B3BF4
:1017B0009A400025E3E7C046FFFF0F808903000041
:1017C000FF0700001C2101231B04984201D3000CD9
:1017D00010391B0A984201D3000A08391B099842A4
:1017E00001D30009043902A2105C40187047C046BA
:1017F00004030202010101010000000000000000DA
:1018000010B5002903D1FFF7DDFF203002E0081CEE
:10181000FFF7D8FF10BDC04670470000012210B589
:101820000024074B52429A629C625A625C621A62BE
:101830001C62DA61DC61FFF7EFFF200010BDC046DB
:1018400000100240FA210A4B70B5890005001868A3
:10185000FEF764FC00F0BEFB04000120002C05D163
:1018600002382200290000F081FB200070BDC04634
:10187000200000204023084A10B5116800200B43C7
:101880001360FFF7DFFF041E03D103F031F92000DE
:1018900010BD0124FBE7C04600200240024A136845
:1018A000013313607047C0465C020020014B18688A
:1018B0007047C0465C020020084B13B5040008497D
:1018C0001868FEF72BFC44430194019B002B00D1C8
:1018D00013BD019B013B0193F7E7C04620000020A8
:1018E00040420F000321036870B59A6804000A4063
:1018F000012A04D11968114201D0002070BD9968F5
:10190000134A114208D010230120626D134363650E
:10191000A36D0343A365F1E701259A6828002A43D4
:101920009A60FFF7C9FFFFF7C1FF060023681B6835
:101930002B42E2D1FFF7BAFF801B0A28F6D9102309
:10194000626D012013436365A36D1D43A565D5E753
:10195000170000800321036870B5040098680840F0
:10196000012801D0002070BD1A680242FAD0052279
:101970009D681540012D19D19868033A02439A6079
:101980001960FFF793FF060023689B682B42E9D09C
:10199000FFF78CFF801B0A28F6D91023626D012007
:1019A00013436365A36D1D43A565DCE71023626DDA
:1019B00013436365A36D0343A365D4E7042203685F
:1019C00070B599680400114201D1002070BD99687A
:1019D000114206D09A68920703D4102299680A43EC
:1019E0009A60FFF763FF0425060023689B682B427B
:1019F000EBD0FFF75BFF801B0A28F6D910230120EC
:101A0000626D13436365A36D0343A365DEE70000C6
:101A100070B504000120002C19D0636D002B06D195
:101A200022005032A3652000137003F06FF8636D3D
:101A3000DB0604D4042223689868104008D01023E1
:101A4000626D01201343636500235034237070BD21
:101A5000626D5549114002220A436265032299686A
:101A60001140524A012902D11D680D4219D1802628
:101A70006168F6054D006D08B54203D080252D063E
:101A8000A94276D11D69AD00AD081D611D692943CC
:101A900019611825D968A943D960D968A56829436F
:101AA000D9601168424D29401160616B1568490683
:101AB00029431160802299685205114202D1996828
:101AC0000A439A60DA683B490A402169DA60DD68B6
:101AD000E268022900D10420266B611C32432A43AC
:101AE000A569C97FAD032A43E569ED032A434D0388
:101AF0002A4325002C352D786D002A430243C2204D
:101B0000DA60626AFF30824204D0A56AD8682A434C
:101B10000243DA60A21CD27F012A06D1002934D107
:101B20008022D96852020A43DA60E16B1A690129FE
:101B300033D12148656C02401A61226C18692A432E
:101B4000A56C2A4302431A611A69114319610721DE
:101B50005A6900208A435A615A69A16B0A435A6143
:101B60000322A065636D93431A0001231343636549
:101B70006DE71D69114EAD00AD081D61156835405A
:101B8000156015682943116083E72021606D0143CA
:101B90006165A16D0A43A265C7E701210A42D6D05B
:101BA0001A698A431A61D2E7FDFEFFFF0827014048
:101BB000FFFFFFFD1902FEFF03FCFFFFFFFFC3FF56
:101BC00070B504000125002811D00223426D134393
:101BD0004365FFF7F3FE051E37D12000FFF7BAFE7D
:101BE0000500012805D10125002350342370280069
:101BF00070BD01236365236815495A6820000A40B7
:101C00005A60144A14491A609A680A409A60DA685D
:101C100012490A40DA601A6911490A4007211A611B
:101C20005A698A435A611A6A0E490A407F211A6228
:101C3000B4331A688A431A601A688A431A6002F039
:101C40008FFF0023A3656365CEE70128CBD0D2E7E1
:101C500060F7FFFF9F080000FFFFFFEF00023E83D9
:101C600002FCFF3F00F000F0036870B59B680400C1
:101C700002205B071AD4250050352B78012B15D094
:101C800001232B70E369012B11D1636D0B4A0020F6
:101C90001A4080235B0013431C2263652368A06500
:101CA00028701A609968183A0A439A6070BD20003B
:101CB000FFF718FE0028E8D0F8E7C046FEF0FFFF67
:101CC00070B506005036337804000220012B12D084
:101CD000012520003570FFF771FE002809D1200092
:101CE000FFF738FE002804D1636D034A13401D43FB
:101CF00065650023337070BDFEFEFFFFF8B54569D2
:101D000004000E00082D0DD003680120DB680C25AF
:101D1000034207D02023626D5034134363600023D5
:101D20002370F8BDFFF7C2FD070023681A6815424B
:101D300024D08022616D92000A436265C022D96876
:101D40001201114213D1621CD27F002A0FD11A68EE
:101D500012070CD59A68520723D40C215A688A437B
:101D60005A60626D1349114001220A4362650020E6
:101D7000A2698242D5D10C221A60D2E7721CD5D05A
:101D8000002E08D10423626D503413436360002396
:101D900003202370C5E7FFF789FDC01BB042C4D9FB
:101DA000F0E72022616D0A4362650122A16D0A43BA
:101DB000A265DCE7FEFEFFFF0368186C70470000B9
:101DC000F8B504005034237806000D000220012BE2
:101DD0000BD032680138916820704B0706D520225D
:101DE000716D0A43726500222270F8BD8023286855
:101DF000194E6F684103DB02490B0340B74219D00B
:101E0000906A01439162002B08D08023134A1B047F
:101E100011680A200B431360FFF74EFD2B689B03EC
:101E200005D580230D4ADB0311680B4313600020A6
:101E30002070DAE7956A8D439562002B04D0074A3B
:101E4000074913680B4013608303F0D5034A054923
:101E500013680B40EAE7C046011000000827014064
:101E6000FFFF7FFFFFFFBFFFF8B5050050352B7860
:101E700004000220012B44D0012303222B7023688D
:101E800098681040012809D11A68024206D0202320
:101E9000626D1343636500232B7032E0626D194954
:101EA000114002220A4303216265DE68DA688A4330
:101EB000DA608022996812060A439A60FFF7F6FCFE
:101EC000070023689A68002A0CDB0322D9681640B1
:101ED0000E43DE60636D002093431A000123134319
:101EE0006365D8E7FFF7E2FCC01B0A28E9D9122294
:101EF000636D012093431A0010231343636500238D
:101F00002B70F8BDFDFEFFFF0368B43318687F2314
:101F10001840704730B5050050352B78040002207A
:101F2000012B19D0012321682B708B6801300340ED
:101F3000012B12D1086818420FD004208B6803408F
:101F40000BD17F24B4310868A043086008680243BD
:101F500018000A6000232B7030BD10230120626D31
:101F600013436365A26D0243A265F3E730B5FF2515
:101F700003242A00C3B21C40E400A2408901294086
:101F8000D243A14000280BDA0F200340083B0A4847
:101F90009B089B001B18D86902401143D96130BDD2
:101FA000064B80088000C018C0239B00C458224004
:101FB0001143C150F3E7C04600ED00E000E100E04E
:101FC0001F2318401E3B8340014A13607047C046E0
:101FD00000E100E0094A431E012093420DD8C021D0
:101FE000074A08485360036A09061B021B0A0B4391
:101FF000036200200723906013607047FFFFFF001B
:1020000010E000E000ED00E0F8B504000120002C35
:1020100035D025681A4B1421E818FEF77FF8194BC4
:10202000800023640223A21D6064D3772E68164BC0
:10203000A1681E40E36827690B433B4367693B4344
:10204000A7693B43E7693B43276A3B4333432B6024
:102050008023DB0199420CD01C2528400D3D854092
:102060000A490B68AB430B6063680D6883402B43E0
:102070000B6000200123E0630534D377E077F8BDDF
:10208000F8FFFDBF000002400F80FFFFA8000240E4
:1020900070B5012504002800002C21D026681421E9
:1020A0003368AB4333600F4BF018FEF737F81C2151
:1020B000830063640B4000209D400D3999400A4A1B
:1020C000A31D226430605560084D2A688A432A6047
:1020D000E06220636063A063E0630534D877E07753
:1020E00070BDC046F8FFFDBF00000240A8000240DE
:1020F000F7B5441DE67F05000220012E23D00138EC
:10210000E077A81DC67F8446F6B202200027012E84
:102110001DD16446E0772C68EF6320681C37B0431C
:102120002060286C0190686C0740BE4001984660B2
:102130006360AB68102B07D1A260E160012300202F
:10214000226813432360FEBDA160E260F6E7E777F3
:10215000F9E7F8B51C220427466C016C32403E00BA
:1021600096400D6803681C6835420DD03C420BD088
:102170001A68920602D41A68BA431A60036B4E605A
:10218000002B19D0984717E002273E0096403542B1
:1021900013D03C4211D01A68920606D40A241A6859
:1021A000A2431A600122831DDA770022431D4E608C
:1021B000DA77C36A9342E5D1F8BD08263700974025
:1021C0003D42F9D03442F7D00E251C68AC431C6068
:1021D00001231C009440821D4C60C363D37700220E
:1021E000431DDA77436BE5E7F0B54F4A0B68821879
:1021F000541EA24187B00393002305320592039A2F
:10220000DA4001D107B0F0BD01259D40039A2A4074
:10221000029200D186E04A6801921022019E964304
:10222000022E0FD1DA08920007248218176A04924E
:102230000F221C40A400A24097430A69A240174302
:10224000049A176203225F00BA40013ED243012E76
:102250000ED8CC688668BC4016403443846044681D
:10226000AC432500019CE406E40F9C402C434460F1
:102270000324019D06682540BD4016403543056096
:10228000C5682A408D68BD402A43C260019AD200C9
:1022900048D50127254D1C406A6BA4003A436A6368
:1022A000234A9D08AD00AD180F22A240AE689643A8
:1022B000A022D20594460022604509D01D4A9446CA
:1022C0003A00604504D01C4F9218B84200D0059ADD
:1022D000A2403243AA60194A029C1668029D019FDF
:1022E000E4433543FF0301D43500254015605668AB
:1022F000029D019F3543BF0301D435002540556041
:102300009668029D019F3543FF0201D435002540A8
:102310009560D568029E019F2E43BF0201D42540DF
:102320002E00D66001336AE700E4FFAF00100240E0
:10233000000001400004005000080050000401406B
:10234000F0B5314A85B082180291511E8A410023AE
:1023500005320392029ADA4001D105B0F0BD0122A4
:102360009A4094466146029A0A40019249D0032558
:102370005C00A5400F24072622001E40B600B24094
:10238000016829430160D908ED43890041180F6AAB
:10239000974362460F628168A027294081604168A7
:1023A000FF0591434160C168184A0D4099088900B2
:1023B000891803221A4092009440C5608E68002557
:1023C0002640B84208D0124F0135B84204D0114F10
:1023D0000135B84200D0039D9540B54211D18A68BD
:1023E000A2438A6001990C4AC94314680C401460E6
:1023F00054680C40546094680C409460D468214048
:10240000D1600133A6E7C04600E4FFAF0000014001
:10241000000400500008005000040140002A01D0D0
:10242000816170478162FCE770B504000120002CD7
:102430003FD0250041352B78DBB2002B05D122009F
:1024400040321370200002F0A1FB242301212B70E5
:102450002368E0681A68A6688A431A6061681A4AA5
:102460000A401A619968194A11409960012821D1DE
:102470008021090231439960586815490143596028
:10248000D96800200A40DA60616922690A43A169BB
:1024900009020A43DA60216AE2690A431A600122EA
:1024A00019680A431A60202360642B702063423449
:1024B000207070BD84210902314399600228DBD16C
:1024C000802109015960D7E7FFFFFFF0FF7FFFFF81
:1024D0000080000270B504000120002C13D02500FC
:1024E0002423226841352B70136883431360200036
:1024F00002F07CFB002023006064423328702063DC
:1025000040341870207070BDF0B50400413422785A
:102510000300D2B20220202A18D11D0040352E78A7
:10252000012E13D01B68223020701E68233886438A
:102530001E601E68064F3E401E601E6831431960D3
:10254000196808431860002022702870F0BDC0464A
:10255000FFEFFFFFF0B5050041352A780300D2B246
:102560000220202A17D11C0040342678012E12D0D8
:102570001B68223028701E68233886431E601E6840
:10258000054F09023E40314319601968084318603D
:1025900000202A702070F0BDFFF0FFFFF7B52D4C32
:1025A0002D4A636880261A40B0231B0213436360E0
:1025B000802322685B0013432360FFF777F905004F
:1025C000B600236833422FD003220C26E3689343DE
:1025D000E360E06830402FD1204B214A1A60FFF7BA
:1025E00031F9051E26D123681E4A80261340802219
:1025F00023602368520213400193019B1A4A236807
:10260000B60413402360FFF751F9070023683340F5
:1026100019D1E3602361C023FF33A3618023226DBE
:102620001B041343236505E0FFF740F9401B022814
:10263000C7D903252800FEBDFFF738F90B4B401B17
:102640009842C6D9F5E7FFF731F9C01B0228DDD95A
:10265000EFE7C04600100240FF00FF00200000200E
:1026600068FF1F00D4FFF6FEFFFFFBFF881300008A
:102670000C22194B10B5D9680A40082A29D00C2A17
:1026800009D0042A1DD11868144BC006C017184081
:10269000134BC01810BD8A021248120F825C090247
:1026A000D868890F0131C00304D50F485043FDF7A6
:1026B00035FDEFE71B68DB0601D50C48F6E7084857
:1026C000F4E780205B6800021B045B0F0133984035
:1026D000E0E70548DEE7C0460010024000E548FF9D
:1026E0000024F400B25E000800127A0000093D00E8
:1026F000F0B5050087B0002802D1012007B0F0BD79
:102700000C23C04CE668E2681E4080235B021A403E
:1027100001920268D2073DD42B689B0700D583E065
:102720002B68DB0628D5002E00D0DDE023689B0552
:1027300002D5AB69002BE0D06268B3492B6A0A402E
:102740001A4362606168EA690902090A12060A43CB
:10275000626080225B0B013312029A401300E16831
:1027600000200A06A949120F8A5CD340A84A1360C8
:10277000FFF768F80028C1D12B681B0700D5EAE0F5
:102780002B685B0700D50CE16B6A002B00D091E150
:102790000020B3E7082E04D00C2E09D1019A002A9C
:1027A00006D023689B03B7D56B68002BB4D1A4E790
:1027B0006A689A4211D1226813432360FFF776F8C2
:1027C00007008022236892021342A5D1FFF76EF81A
:1027D000C01B6428F5D9032090E7A021C9028A42D2
:1027E00005D180222168D2020A432260E3E72168F2
:1027F00088480140216021680B400593059B86496C
:1028000023680B402360002AD8D1FFF74FF8070058
:10281000802223689202134200D17DE7FFF746F839
:10282000C01B6428F4D9D6E72022EB68134203D0FA
:102830002168934311432160042E04D00C2E25D12E
:10284000019A002A22D12268520702D5002B00D11A
:1028500053E761682A697148120201400A4309215D
:10286000626022688A4313432360FFF701FFE36835
:10287000664A1B061B0FD35CD840654B18600020CE
:10288000FEF7E0FF002800D14AE737E7002B19D018
:10289000092122688A4313432360FFF707F80700E2
:1028A00004222368134207D062682B695B491B022C
:1028B0000A401343636033E7FEF7F8FFC01B0228AA
:1028C000EED988E70122236893432360FEF7EEFFE9
:1028D000070004222368134200D121E7FEF7E6FF38
:1028E000C01B0228F5D976E7AB69002B20D08023E6
:1028F00022685B0013432360FEF7D8FF07008022A5
:102900002368920013420DD063683F4A13402A6A3D
:10291000134363606268EB6912021B06120A1343D9
:10292000636029E7FEF7C2FFC01B0228E7D952E720
:1029300023683B4A13402360FEF7B8FF070080225C
:1029400023689200134200D116E7FEF7AFFFC01BC9
:102950000228F4D93FE76A690123002A10D0226DCA
:1029600013432365FEF7A2FF07000222236D1342E3
:1029700000D005E7FEF79AFFC01B0228F5D92AE729
:10298000226D9A432265FEF791FF07000222236D14
:10299000134200D1F4E6FEF789FFC01B0228F5D9E7
:1029A00019E780230021A26B5B0501911A4204D133
:1029B000A26B1343A363012301938022194F52009A
:1029C0003B68134208D08022AB68520093422BD15F
:1029D000226D134323654CE080223B685200134371
:1029E0003B60FEF763FF80235B00029003933B682C
:1029F000039A1342E7D1FEF759FF029BC01A6428DD
:102A0000F5D9E8E600100240FF1FFFFF9A5E0008BC
:102A100020000020FFFFFEFFFFFFFBFFFFE0FFFFA6
:102A2000FFFEFFFF00700040002B16D1236D534ABC
:102A300013402365236D524A13402365FEF736FF8A
:102A400007008022236D920013422AD0FEF72EFF4A
:102A50004C4BC01B9842F4D9BDE6A021C9008B4263
:102A60000BD18023216DDB000B432365236D1A43BB
:102A70002265FEF71BFF07000EE0236D3F4A13405F
:102A80002365236D3E4A1340A4E7FEF70FFF3D4B3D
:102A9000C01B984200D99EE68022236D920013420B
:102AA000F3D0019B012B00D06EE6A36B364A134096
:102AB000A36369E60C2E43D0344A022B2ED123683F
:102AC000802613402360FEF7F1FE0700B60423685A
:102AD00033421DD1E96AAB6AE2680B432C490A40D4
:102AE00013432A6B80251343E360802322685B0431
:102AF00013432360FEF7DAFE0600AD0423682B4281
:102B000000D045E6FEF7D2FE801B0228F6D962E629
:102B1000FEF7CCFEC01B0228D9D95CE623688025CD
:102B200013402360FEF7C2FE0600AD0423682B426B
:102B300000D12DE6FEF7BAFE801B0228F6D94AE640
:102B40001800012B00D1D9E58022E368A96A52025E
:102B50001A4001208A4200D0D0E5F022E96A9203AF
:102B60001A408A4200D0C9E5C02000040340286B07
:102B7000181A431E9841C0B2C0E5C046FFFEFFFFD1
:102B8000FFFBFFFF88130000FFFFFFEFFFFFFFFECB
:102B9000FFFF02FFF7B5061E019101D10120FEBD26
:102BA0000122514C0199236813408B4227D332688C
:102BB00093072FD4D30735D40123226801991A40F3
:102BC0008A4200D981E03268484C530700D584E03E
:102BD000130706D5E26833694549DB000A40134311
:102BE000E360FFF745FDE368424A1B061B0FD35C19
:102BF000D840414B18600020FEF724FECFE7236841
:102C0000019993430B43236023681340019A934235
:102C1000C4D1CCE7F0203549CB688343B068034387
:102C2000CB60C7E7314D72682B68022A19D19B032C
:102C3000B4D50321EB688B431343EB60FEF736FEFC
:102C400073680700022B19D10C22EB681340082B84
:102C5000B2D0FEF72BFE294BC01B9842F4D90320BB
:102C60009DE7032A02D19B01E3D497E7012A02D111
:102C70005B07DED492E79B05DBD48FE7032B0BD1F8
:102C80000C22EB681340934296D0FEF70FFE1B4BCD
:102C9000C01B9842F4D9E2E7012B10D00C22EB685C
:102CA000134289D0FEF702FE144BC01B9842F5D99F
:102CB000D5E7FEF7FBFD114BC01B9842CFD80C2285
:102CC000EB681340042BF4D176E722689A43226024
:102CD00022681A4200D176E760E7E36808490B40B2
:102CE000F1680B43E36073E70020024000100240EC
:102CF000FFC7FFFF9A5E0008200000208813000035
:102D0000FFF8FFFF044B054ADB685B055B0FD35CF4
:102D1000034A1068D840704700100240AA5E0008BD
:102D200020000020044B054ADB689B045B0FD35C4A
:102D3000034A1068D840704700100240AA5E00089D
:102D4000200000200368F7B505009B063BD58023D3
:102D500000214F4C5B05A26B00911A4204D1A26B7B
:102D60001343A3630123009380274A4E7F003368F7
:102D70003B424FD06868C023C02601002268B603DA
:102D80009B023040324019401E00904253D1236DC7
:102D9000334057D16968C0230A009B021A409A4207
:102DA00007D123683C480340C020800301400B4307
:102DB0002360236D1A43009B2265012B03D1A36B73
:102DC000364A1340A3632A68930706D50C2030497E
:102DD000CB6C8343A8680343CB64530706D52C49C7
:102DE0002F48CB6C0340E8680343CB64130706D538
:102DF00027492C48CB6C034028690343CB6400204F
:102E0000130617D5224A2849D36C0B4069690B4336
:102E1000D3640FE033683B433360FEF747FD019016
:102E200033683B42A6D1FEF741FD019BC01A6428DE
:102E3000F6D90320FEBD9942A9D1236801209B0346
:102E4000A5D5F7E78B42A5D02B689B06A2D580229B
:102E5000216D206D120302432265226D134B14482D
:102E60000B40024022652365CB0500D492E7FEF7B4
:102E70001DFD80270600BF00236D3B4200D089E77F
:102E8000FEF714FD0B4B801B9842F5D9D1E7C046E5
:102E90000010024000700040FFFFCFFFFFFFFFEF78
:102EA000FFF3FFFFFFCFFFFFFFFFF3FFFFFFFCFF7D
:102EB000FFFFF7FF88130000802210B50368D205DA
:102EC000904205D0104CA04202D0104CA0420FD12D
:102ED0007024A3434C682343904205D00A4A904291
:102EE00002D00A4A904203D1094A1340CA681343E8
:102EF000802293430A69134303608B68C3620B68A3
:102F000083620123436110BD0008014000140140A9
:102F1000FFFCFFFF012230B57325036A9343036270
:102F2000036A44688269AA430D682A430225AB43B9
:102F30008D68446082614A682B434263036230BDFE
:102F40001022036A30B593430362036A094C456853
:102F5000826914400A68120222432024A3431C0001
:102F60008B6845601B0182614A6823438263036268
:102F700030BDC046FF8CFFFF1F2310B50124194050
:102F80008C408A40036AA3430362036A1A430262C5
:102F900010BD70B504000120002C14D02500393577
:102FA0002B78DBB2002B05D12200383213702000C1
:102FB00001F034FE022320682B70211DFFF77CFFF7
:102FC000012300202B7070BD70B505000223393538
:102FD0002B700368084A196A0400114203D10121C9
:102FE0001A688A431A60200001F08CFE00203834F1
:102FF0002870207070BDC04611110000010002232E
:1030000039310B70036807209A680240062A03D002
:103010000122186802431A60012300200B707047D8
:1030200010B5040001220068FFF7A6FF07212368FE
:103030009A680A40062A03D0012219680A431A60D6
:10304000002010BD704770B504000120002C14D082
:10305000250039352B78DBB2002B05D12200383220
:1030600013702000FFF7EEFF022320682B70211D54
:10307000FFF722FF012300202B7070BD10B5FFF772
:10308000CFFF10BDF8B50500022338350C002978B4
:1030900007001800012925D03E000121393629708A
:1030A00033700C2A1AD81000FDF72EF807181818DC
:1030B0001D1818182F181818520021003868FFF72B
:1030C00029FF08223B6899690A4304219A619A6999
:1030D0008A439A619A69E1680A439A610123002050
:1030E00033702870F8BD21003868FFF729FF80226F
:1030F0003B68120199690A439A619A6926490A4014
:103100009A61E26899691202E6E773203B682349F5
:103110001A6A0A401A621A6A5F68D969814320688C
:1031200001431F481040A2685F601202D9616168C4
:103130000243D9631A620822D9690A430421DA6179
:10314000DA698A43DA61DA69E1680A43DA61C5E774
:103150003B6814491A6A14480A401A621A6A5F687E
:10316000D969014020680002014310481040A2685C
:103170005F601203D9616168024319641A62802298
:10318000D96912010A43DA61DA6903490A40DA614E
:10319000E268D9691202D8E7FFFBFFFFFFFEFFFFDD
:1031A000FFFDFFFFFFEFFFFFFF8CFFFFFFDFFFFFD4
:1031B000F0B5040002223834257803001000012DF8
:1031C00017D01D0001271B68393527702A709A68AF
:1031D000454802409A600A68402A00D16DE014D840
:1031E000102A0BD006D8002A08D0012300202B700B
:1031F0002070F0BD202A01D0302AF6D170219868C5
:10320000884369390A4302433DE0602A3DD017D81C
:10321000502AEAD14868CA68196A1E6A1201BE4378
:10322000F0271E629E69BE4332430A26B143014322
:103230009A61196270219A688A431100572221E02D
:10324000702A12D0802080018242CED19A6827480D
:103250004E6810408A68C968324309020A43024333
:103260009A6080229968D2010CE09A681F484E68E3
:1032700010408A68C968324309020A4302439A60CF
:10328000772299680A439A60AFE71026186A4A685D
:10329000B043C96818629E69154F09033E40314327
:1032A000A026186A99617021B043120102431A6284
:1032B0009A688A4311006722E4E74868CA68196A75
:1032C0001E6A1201BE43F0271E629E69BE4332434E
:1032D0000A26B14301439A61196270219A688A43B0
:1032E00011004722CEE7C0468800FFFFFF00FFFF26
:1032F000FF0FFFFF70B50400022238342578030069
:103300001000012D13D01D007026186839352A7061
:1033100042688368B2430E68496832438026B343EB
:103320000B4342608360012300202B70207070BD2E
:1033300070B505000120002D12D0242300246B67F6
:103340002B681A6882431A6028001C605C609C60CD
:1033500001F044FD2000EC676C67AC6770352C70A1
:1033600070BD0000F8B504002569A26803682A430F
:103370006569C1692A431868764D0A4328400243AB
:103380001A605A687448754D0240E06802435A60FA
:10339000A069AB4201D0226A10439A68704E324055
:1033A00002439A606F4A934214D10C206E4BDA6C40
:1033B00002406E48805C80221202914200D08BE075
:1033C000082800D985E0FCF79FFE50585B847C8478
:1033D00084847F00AB4200D0B4E0C0218020624AE8
:1033E0000901D36CC0000B4083423BD003D8002BB3
:1033F0000AD001250DE08020000183420ED08B42CF
:10340000F7D18020000210E0FFF77CFC0025A842E5
:103410000BD10023280023666366F8BD1068544B67
:10342000C006C0171840534BC018032263685A43A4
:103430008242DED81A038242DBD30027020E010249
:103440005E0889197A41080011001A003B00FCF758
:103450002BFF494BC218494B9A42CAD823683D00FA
:10346000D860D6E7FFF704F9D0E7FFF74BFC6368B5
:1034700040005B08C01861680BE0FFF753FCF6E7FB
:1034800010251A68616815404808002D06D03C4B8D
:10349000C018FCF743FE002583B204E0394BC01886
:1034A000FCF73CFE83B21900374810398142A0D89E
:1034B0000F2118001B0788435B0F21680343CB6073
:1034C000A7E7FFF7D5F8D2E76368580880235B02C7
:1034D000D0E701250023E6E7082837D8FCF714FEDB
:1034E000050C0F362A3636362D00FFF70BFC6368C5
:1034F0005B08C01861680BE0FFF714FCF7E71025C4
:103500001A68616815404808002D0DD01F4BC0187F
:10351000FCF704FE002583B219001B4810398142D4
:1035200000D966E72168CAE7124BC018FCF7F6FD20
:1035300083B2F1E7FFF79CF8D9E763685808802366
:103540001B02D6E780231B029942C2D0012500232B
:10355000E2E7C046F369FFEFFFCFFFFF00480040FE
:10356000FFF4FFFF0044004000100240005E00082E
:1035700000E548FF0024F40000FDFFFFFFFC0F0002
:1035800000127A000048E801EFFF000000093D004A
:10359000436A30B5DA0706D50168284C4A682240EC
:1035A000846A22434A609A0706D50168244C4A6817
:1035B0002240C46A22434A605A0706D50168214C5A
:1035C0004A682240046B22434A601A0706D5016804
:1035D0001D4C4A682240446B22434A60DA0606D5F5
:1035E00001681A4C8A682240846B22438A609A06DA
:1035F00006D50168164C8A682240C46B22438A6053
:103600005A0610D50168134D4A68046C2A402243BB
:103610004A6080225203944205D14A680E4C2240EF
:10362000446C22434A601B0606D502680B49536866
:103630000B40816C0B43536030BDC046FFFFFDFF64
:10364000FFFFFEFFFFFFFBFFFF7FFFFFFFEFFFFF1F
:10365000FFDFFFFFFFFFEFFFFFFF9FFFFFFFF7FF12
:10366000F8B504000E0015001F002268D36933402E
:103670009B1B59424B41AB4201D000201BE0069BF3
:103680000133F3D0FEF712F9069BC01B984201D814
:10369000002BEAD1236808491A6803200A401A60FF
:1036A0009A68A331FF318A439A6020236367A36736
:1036B000002370342370F8BD5FFEFFFF73B5002652
:1036C0000400C667FEF7F2F8236805001B681B07B5
:1036D00015D423681B685B070AD580210E4B002296
:1036E0000093C9032B002000FFF7BAFF002811D177
:1036F000202300206367A367703420700BE08021D3
:10370000054B32000093890303002000FFF7A8FF58
:103710000028DED0032076BDFFFFFF0110B5041E98
:1037200001D1012010BD436F002B04D10200703283
:10373000137001F009FB24230121226863671368D9
:1037400020008B431360FFF70DFE0128E9D0636A68
:10375000002B02D02000FFF71BFF236809495A689D
:1037600020000A4022215A609A688A439A600822FF
:1037700099680A439A60012219680A431A60FFF7A0
:103780009DFFCFE7FFB7FFFF002800D17047034B35
:10379000C046013B002BFBD10138F5E75E15000068
:1037A00010B5002801D0FFF7EFFF10BD8023244A99
:1037B0009B00516B70B50B4307215363214B224C87
:1037C0005A6920008A435A61062259690A435A619C
:1037D000FEF74AFA0A212000FEF790FA2000FEF7D1
:1037E000EBFA2000FEF740FA0A212000FEF786FAE5
:1037F0002000FEF7E1FA05002000FEF735FA0A2165
:103800002000FEF77BFA2000FEF7D6FAFA220F4BD3
:103810001201954202DD00221A6070BD0122312D95
:10382000FADDFE22FF32954202DCFC3AFF3AF3E772
:10383000074A954201DC0322EEE70422ECE7C0468A
:103840000010024000240140F00300201402002078
:10385000B1070000F0B5012402200425234B89B0F4
:10386000DA6A00AF2243DA62DA6A002622407A601E
:103870007A68D96A0143D962DA6A0240BA60BA68E2
:10388000DA6A9E30AA43DA6280230C225B00B91800
:10389000FB60C005FD3BBB613E617C61FEF7A4FCA3
:1038A0000C220823BA18FB601100053B1048BB61CD
:1038B0003E617C61FEF798FC0E4B1E605E609E6070
:1038C00072B6BFF34F8F03210B4A13688B431C431F
:1038D0001460BFF34F8FBFF36F8F00231B6883F318
:1038E00008882B689847BD4609B0F0BD001002401B
:1038F0000004005010E000E00000014010B5124844
:10390000FEF7C6FB1148FEF75BF91148FFF710FD03
:103910001048FFF759FB1048FEF7DCFDFEF73EFEAE
:10392000A0200E4CC0052100FEF70AFD21000C4826
:10393000FEF706FD21000B48FEF702FDFDF76EFFC6
:10394000FFF788FF10BDC04660020020F003002092
:103950007003002034030020A8020020FFFF0000B5
:1039600000040050000800500B4B00280AD0012230
:103970000A481A600260FA22094B9200914208DC60
:103980001960704780221860064B5A81064B5863B5
:10399000F1E71A60F5E7C0460400002008000020A7
:1039A0000000002010000050001401400122064BCE
:1039B0001860064B1A60FA22054B9200914201DC16
:1039C000196070471A60FCE708000020040000201E
:1039D0000000002030B599B0202200210CA801F091
:1039E0007FFF14220021684601F07AFF182200218F
:1039F00005A801F075FF1749174A0B6800241A4003
:103A000080231B0113430B6002230B931493802329
:103A1000DB021693802310220125DB030BA80F92F3
:103A200017930E951594FEF763FE0F23290000935C
:103A300068460C3B0193029403940494FFF7AAF8A0
:103A40000A2305A80593063B07930994FFF77AF923
:103A500019B030BD00700040FFE7FFFFF0B5FD4D2D
:103A600093B02B6D9B0037D580232A6D01241B0456
:103A700013432B65FDF7FEFEFFF7ACFF1422002178
:103A80000DA801F02DFFA020EB6A00222343EB627A
:103A9000EB6A802123400293C005029BFEF7BEFC27
:103AA000A02022004021C005FEF7B8FCC023A020C2
:103AB0000D9300230DA9C0050F9310930E94FEF7EC
:103AC00093FB4023FA20E44A40001381DB18538122
:103AD000FFF75AFEFFF7BEFEFDF7CCFEFFF77AFFB9
:103AE000142200210DA801F0FBFE04220126022170
:103AF0008024EB6A24021343EB62EB6AD74813403D
:103B00000493049BEB6A00223343EB62EB6A802749
:103B100033400593059BEB6AFF050B43EB62EB6AB1
:103B20000B4006932100069BFEF778FCA020320094
:103B30008021C005FEF772FC0D9400240DAB190026
:103B4000C6480E960F941094FEF74EFB0823A02053
:103B50000D930DAB1900C0050E940F94FEF744FBB6
:103B60000DA80100A0208023C0050D930E960F9490
:103B70001094FEF739FB0DA80100B9480D960F9679
:103B80000E94FEF731FB2B6B220033432B632B6B20
:103B90002100334003930B20039BFEF7E7F90B2032
:103BA000FEF70EFA210008220DA801F099FEAD4D96
:103BB000AD4B28002B600623AB63AB19DC77AB1C45
:103BC000DE77C22304222C30FF33047028006A61A0
:103BD0006B626F602E61EC63AC60EC60AC622C6376
:103BE000AC616C63EC61FDF713FF802040010E9027
:103BF0000DA928000D96FEF7E3F89C4B0DA92800AF
:103C00000D93FEF7DDF89A4B0DA928000D93FEF7F2
:103C1000D7F89848984B994E43600C23066043614F
:103C20008460C46004618461C46104624462FFF71B
:103C300075FD8023924E934A3361603BF36180238C
:103C4000326004229B01300072603362B460F46021
:103C50007461B461FEF7D8F9402388488A498268C4
:103C6000134383608023894A5B003000FEF740FAEB
:103C70001022210009A801F033FE0822210007A824
:103C800001F02EFE102221000DA801F029FE0221D4
:103C90007F4E804B3000F36037607160B4603461F8
:103CA0007461FFF776F9802009AF4001390009906F
:103CB0003000FFF77DFA07AF3000FFF7C4F9390095
:103CC0003000602707940894FFF714FB04220D9737
:103CD0000DAF39001092300022000DAF0E940F94FA
:103CE000FFF7D0F9042239003000FFF7CBF930009C
:103CF00000F0B6FF684E694B30003360684BB4602B
:103D0000736001233461F3607461B461F4613462FF
:103D1000FEF78AFB21003000FEF7F6FB0DAF210015
:103D20003000FEF717FC10222100380009AF01F027
:103D3000D7FD08222100380001F0D2FDFA23594FA7
:103D4000DB017B60584E594B38003E60FB60BC6025
:103D50003C617C61FFF71DF980200DAB400119002B
:103D60000D903800FFF724FA09AB190038000994C8
:103D70000A94FFF7BFFA1022210009A801F0B0FD54
:103D80000822210007A801F0ABFD102221000DA898
:103D900001F0A6FD464E474B02213360FA23300066
:103DA0009B00F3607160B46034617461FFF7F1F8F7
:103DB00080204001099009A801003000FFF7F8F9C0
:103DC0003000FFF740F907A801003000079408947D
:103DD000FFF790FA6021042264230DA80D91109240
:103DE0000100220030000E930F94FFF74BF93000D2
:103DF00000F036FF21002800FEF736F821002800E9
:103E0000FEF782F8210002002800FEF783F8FFF792
:103E1000CDFC00F085FB00F0EBF82349264D4C6209
:103E200038002C60FFF7EAF8224930004C62FFF7B7
:103E3000E5F821003000FFF721F98022FA23064936
:103E400001264A811D4A1B4F136032221C4B1E6003
:103E500038E0C0460010024010000050000800503A
:103E600000040050F0030020002401400200000480
:103E7000200000147003002040420F000044004066
:103E80006002002058000240244400400005002049
:103E900034030020FF0F0000A8020020005400405F
:103EA0002D1530004C04002000080140FFFF0000E9
:103EB000F802002000140140F40200200800002055
:103EC00004000020374B384E1A60384B0093384BB3
:103ED0000193384B384A1A60019A2B68526A99B29A
:103EE00091421CD0354A01332B601368002B14DD3E
:103EF000013B1360002B10D1314909681160294A38
:103F0000802110682F4A1468002C31D02E4C21815A
:103F1000FA218900091A7963136000F0C1F8009B47
:103F20002A4A5B6812689B18FF225B421340284AAA
:103F3000136027490A68002A1FD12649264A0B68C0
:103F400012689A4211D0F26912060ED5234A1268FD
:103F5000002A06D0224A2348D25CB26202680132AB
:103F60000260FF22013313400B6000F017FBB0E743
:103F7000154B598178630123CEE714481A4C036826
:103F8000013AE45C0A60A446FF240133154A234049
:103F900003601368002B01D0013BC9E7604601F0C4
:103FA0002BFCC6E7000000200044004058000240FF
:103FB0000008014000300040AAAA000004000020D0
:103FC000080000201C0200201000005050020020B9
:103FD0001802002054020020580200202400002073
:103FE000000600204C020020000500207047000061
:103FF00000210F4B10B51A680E4B0F4C1A605A6017
:104000009A60DA601A615A619A610C4B200019605B
:104010000B4B19600B4B19600B4B1960FFF72EF817
:1040200004212000FFF72AF80122084B1A6010BD76
:104030000C0000208804002034030020B00400207D
:10404000A4040020AC040020A804002020020020CA
:104050000022044B1860044B1A60044B01321A60B2
:104060007047C0460C000020A80400202002002059
:104070000A4B18608023DB05002802D1586398633F
:1040800006E0002805DA00224042400058639A63A7
:104090007047002240005A63F1E7C0462402002026
:1040A000204B70B51B68002B28D01F4A1F4B10688F
:1040B0001B681F4A1B1A1F48136002681E4C95009C
:1040C00029591E4E591A0132316002602B51072ABC
:1040D00001D1002202601A4A1068002B0FDB5C102D
:1040E00020181060D81C126806280CD81548164CE9
:1040F0001018A04207D80020FFF7BAFF70BD5C423D
:104100006410001BEDE71148006843431048006845
:10411000484318180F4B1B6853431B12C0180E4B13
:104120001860E9E7200200201C0000200C0000209D
:10413000A4040020B004002088040020AC04002067
:10414000A8040020FF030000FE0700001800002064
:1041500010000020140000202402002010B50020D0
:10416000FFF786FF0022014B1A6010BD20020020DD
:104170008023034ADB0051680B4353607047C046FD
:1041800000540040024A034953680B405360704793
:1041900000540040FFFBFFFFFE21054B40005A6822
:1041A0008A435A605A68013108401043586070478A
:1041B00000540040064B07495A6800040A40FF219A
:1041C0005A605A6809040840104358607047C04656
:1041D00000540040FFFF00FFF8B50E001700FFF786
:1041E000DBFFFFF7CFFF3000FFF7E4FF80238020E5
:1041F0002C4C9B0462688001134363603B78013E52
:10420000A36262687D1C02436260274AF1B2636860
:10421000034003D0013A002A03D1082300200127DC
:104220000BE0C046F3E7A069384206D0002904D06D
:104230002E780139A662C9B20135B826760030421F
:1042400026D1013A002AEED1102213432022104237
:1042500021D0E1690A43E26180225200104204D079
:10426000E1690A43E261022213431022104215D091
:10427000E3691A43E26180236268DB0113436360F0
:104280000120FFF78DFAE269084B1343E36107E071
:10429000002ADBD1D8E701221343DDE7002BEAD166
:1042A000F8BDC04600540040FF0F0000381F00005A
:1042B000F8B50D001600FFF76FFFFFF759FF280054
:1042C000FFF778FF802380212B4C9B0462688901D3
:1042D0001343636062680A436260284A63680B4064
:1042E00003D0013A002A2DD1082300212027B8202D
:1042F0004000014236D1013A002A25D11022134351
:104300002022114231D0E0690243E2618022520052
:10431000114204D0E0690243E261022213431022F9
:10432000114225D0E3691A43E26180236268DB0110
:10433000134363600120FFF733FAE269104B134324
:10434000E36117E0C046C9E70420A1690142CED06D
:10435000606A002D04D0013D3070EDB20136C6E731
:104360003B43C4E7002ACBD1C8E701221343CDE782
:10437000002BDAD1F8BDC04600540040FF0F00000A
:10438000381F000070B5FFF707FFFFF7FBFE0120A5
:10439000FFF710FF8023284C9B046268134363607F
:1043A00000238022A3626368920113436360234B5E
:1043B0006568154003D0013B002B04D10825B821C6
:1043C0000022490002E0C046F2E7A2690A4228D171
:1043D000013B002BF9D110231D4320231A4223D087
:1043E000E1690B43E36180235B001A4204D0E16979
:1043F0000B43E36102231D4310231A4217D0E269E5
:104400001343E36104231D4380236268DB011343EC
:1044100063600120FFF7C4F9E269094B1343E361CC
:1044200007E0002BD9D1D6E701231D43DBE7002DA0
:10443000EAD1280070BDC04600540040FF0F0000C4
:10444000381F000070B5FF2686B001ACC5B222004F
:10445000280001212670FFF7BFFE267000262200EB
:1044600028000121FFF7B8FE220028000121267054
:10447000FFF7B2FE2200012128002670FFF7ACFEF4
:104480001E20FFF78DF9054B220023801F230321F7
:104490002800A370FFF7A0FE06B070BD10C0FFFF9C
:1044A000002307B5C0B201AA01211370FFF794FEE3
:1044B00007BD30B585B06B46002501AC6A460121C9
:1044C0005E201D70FFF788FE22000A215E20FFF7A4
:1044D000EFFE6B461D70182369466846E2791A4064
:1044E000163B13434B70217A8170607AE02420439D
:1044F0006C4641404B40191159408B104B405910AC
:104500004B40E070DB0703D47E235B421A436270AA
:104510006A4604215E20FFF75FFE05B030BD000053
:104520000122184B70B5196814200A431A605A68A2
:1045300015490A405A60FFF733F93520FFF722FF8B
:10454000124C0023002803D13530FFF77BFF3523C1
:104550004D202360FFF716FF0D4C0023002803D1E8
:104560004D30FFF79DFF4D2323600A4D0A4C142068
:104570006581FFF715F925811420FFF711F9FFF781
:1045800098FF70BD00540040FFF7FFFF400200207D
:10459000280200200080FFFF10080050F7B5BF4E32
:1045A000BF4F33683A689B1A102B13D9FFF7D6FD1B
:1045B000FA2164204900FFF7F9F9BA4B32689A42B0
:1045C00008D8BFF34F8FB84BB84ADA60BFF34F8FAC
:1045D000C046FDE78122B64C52002368934200D1C9
:1045E000D0E100DDA2E0072B00D125E127DC032B81
:1045F00000D105E114DC012B00D1F0E000DDF5E095
:104600005E20002B00D1A3E1AA4800F0E9FC20685D
:1046100000F0F0FC00F078FC0A2000F0C9FCDCE0BF
:10462000A54A0421052B00D1FDE000DCF2E09369EE
:104630000B427AD0A14B526A1A610723D4E00B2BAC
:1046400000D173E155DC092B00D109E100DCFDE06C
:104650009A499B4ACE6833079B0F1360994A1068AA
:10466000834200D152E10F25086913600B680211E3
:104670001B012A401A434B6828401B010343924800
:10468000360103608868914F0001019028004D6950
:104690003A602840019D284305008D48019005603F
:1046A000F020000130408E698A4930430860802143
:1046B00009010A4202D0884812183A600B4203D01E
:1046C000854A9B18804A13602B000D4204D0824A11
:1046D0009446019A634413603868FCF72FFD7F4BC2
:1046E0001860794B1868FCF729FD7D4B18600B2387
:1046F0007AE080256D00AB4200D122E100DD3AE195
:104700000C2B00D080E7774B1868FDF709F8764B43
:10471000764AFCF75DFDFCF7CDFF80231B01C01836
:10472000734B2560186033683B60F7BD85225200EB
:10473000934200D169E130DC043A5F4D934200D1ED
:104740003DE10EDC822004214000834200D12DE1B6
:1047500000DC22E1AB690B42E7D0696A574BD960B4
:104760000EE184225200934200D139E100DC2FE1B6
:104770002023AA691A4200D1E7E08026EA69760080
:104780001343EB61AB69334200D132E1594800F089
:1047900027FCEB691E43EE6176E0574A934200D155
:1047A00064E110DC55498B4200D14FE100DD54E15A
:1047B000033A934200D027E7514B1868002800D0F5
:1047C0003EE1C023C2E04F4A934200D16DE100DADE
:1047D00056E1FB32934200D016E7002304E0364B4B
:1047E0005B689B04A1D4022323609EE7324B9A6945
:1047F000520700D499E75A6A304B1A600323F3E753
:1048000004232D4A9169194200D18EE7516A2B4A3F
:104810005160E9E793690B4200D186E7274B526A62
:104820009A600523E0E793690B4200D17DE7234BB3
:10483000526ADA600623D7E71F4B9A69520700D401
:1048400073E75A6A1D4B5A610823CDE71A4B9A69E0
:10485000520700D469E75A6A184B9A610923C3E7E3
:104860002023154EB26935001A424FD08027F269D5
:104870007F001343F361B3693B424AD01D4800F007
:10488000AFFBF3691F43F7611F4800F0A9FBFF234B
:1048900022689A43130001337DE0C046F4020020F1
:1048A00034020020E703000000ED00E00400FA05F8
:1048B00044020020895E000800540040BC0400202F
:1048C000380200203C020020F8040020DC04002014
:1048D000E4040020EC04002000F0FFFFB4040020FA
:1048E000F4040020F0040020305F844083C8C96DC8
:1048F0001C000020515E00080302000001020000BD
:104900002802002005020000405E000880235B00B2
:104910006AE7B369DB0607D5684800F03FFB102360
:10492000F2691343EB61AFE70A235DE7644B196853
:10493000644B186801F036F8634B18602368013344
:1049400052E7624B1868002802D180239B004BE796
:10495000FFF722FCFFF70CFC0720FFF72BFC80225F
:104960005B4B920459680A435A608022596892014D
:104970000A435A60E2E7564B5B689B0400D5D4E6D5
:104980002260D2E6524B9A69520700D4CDE65A6AA9
:10499000504B1A600423FF3326E7AB690B4200D16A
:1049A000C3E66A6A4B4B20605A60BEE6AB690B42B5
:1049B00000D1BAE6474B6A6A9A600623EBE7AB6917
:1049C0005B0700D4B1E6434B6A6A1A610823E2E749
:1049D000AB695B0700D4A8E6696A3E4B5961CFE733
:1049E000AB695B0700D4A0E63A4B6A6A9A610A2376
:1049F000D1E71026AB69334205D0304800F0CEFA3B
:104A0000EB6933438EE7852381E7032331488269CD
:104A10001340314A1360314A11688B4295D00F26FA
:104A20000169136003680D111A0135402C4B2A43AC
:104A30001A60436831401B012A4A0B43136084E724
:104A4000FFF7AAFBFFF794FB022086E7204B5B6889
:104A50009B0400D569E6244BC6E61D4B99694907BE
:104A600000D462E6596A1B4B196089E7184B9A69B2
:104A7000520700D459E65A6A164B5A60812365E7FB
:104A80002023134DA969194200D19AE68026E969CD
:104A900076000B43EB61AB69334200D076E610261B
:104AA000AB69334200D16BE7A7E70A4A1368526843
:104AB0001B0213430D4A136083E6C046645E000880
:104AC000F4040020B4040020F00400204002002080
:104AD00000540040BC0400202C02002030020020C2
:104AE000E8040020D804002002020000E0040020B6
:104AF0000122054B596B0A435A638022996B520578
:104B00000A439A637047C0460010024010B5040083
:104B100086B01422002101A800F0E2FE0E4B2268AC
:104B20009A4216D180220D4B9200596BA0200A4365
:104B300001215A63DA6AC0050A43DA62DB6A0B4074
:104B40000093009B232301A90193203B0293FDF7CF
:104B50004BFB06B010BDC0460024014000100240CF
:104B6000074B026810B59A4209D1A020054A0649B0
:104B7000536BC0050B4053632321FDF7E1FB10BDD0
:104B80000024014000100240FFFDFFFF10B50400AB
:104B900086B01422002101A800F0A2FE104B22686A
:104BA0009A421AD102210F4C0F48E26A0A43E2628C
:104BB000E36A03220B400093009BC0230193AE3BAA
:104BC000029301A9113B039304920593FDF70CFB9B
:104BD0008023A26B9B031343A36306B010BDC046A2
:104BE000005400400010024000040050074B0268CF
:104BF00010B59A4208D1064A0649936B06480B4005
:104C00009363C021FDF79CFB10BDC04600540040DB
:104C100000100240FFFFDFFF000400508022036805
:104C2000D205934205D101230A4A916B0B4393634A
:104C30007047094A934205D10423064A516B0B433E
:104C40005363F5E7054A9342F2D1024A2023516BA0
:104C5000F5E7C04600100240000801400014014082
:104C600010B5040088B01422002103A800F038FE1B
:104C700080222368D205934228D1012002241E4BB2
:104C8000D96A0143D962DA6A03A902400092009A04
:104C9000DA6AA0202243DA62DB6AC005234001936E
:104CA000019B80235B000393FB3B07930494FDF778
:104CB0009BFA08230393002310480494059306935A
:104CC000079403A9FDF790FA08B010BD0C4A93426F
:104CD000FAD10120084AD16A0143D162D36A03A9FB
:104CE00003400293029B4023A02003933E3B049386
:104CF00003330793C005E5E70010024000040050AD
:104D00000014014080220368D205934205D101219D
:104D10000A4A936B8B4393637047094A934205D1C8
:104D20000421064A536B8B435363F5E7054A9342CC
:104D3000F2D1024A2021536BF5E7C0460010024031
:104D4000000801400014014070B5050086B014222F
:104D5000002101A800F0C4FD1C4B2A689A4233D1FF
:104D600080221B4B9202996BA0200A439A63012276
:104D7000D96A04261143D962DB6AC0051340009347
:104D8000009B122301A902930F3B03920493019607
:104D90000596FDF729FA0F4C0F4B80222360002364
:104DA000A360E3606361A3612033E361802320009B
:104DB0009B01666022612362FDF726F9002801D07D
:104DC000FFF714F9EC66A56206B070BD0044004020
:104DD000001002406002002058000240094B0268A7
:104DE00010B504009A420CD1A020074A0749936BE2
:104DF000C0050B4093630421FDF7A2FAE06EFDF7B6
:104E000047F910BD0044004000100240FFFFFDFFC5
:104E10007047FEE77047704710B5FCF73FFD10BDC7
:104E200010B50248FDF795F910BDC046600200209C
:104E30008022104B520019680A431A60DA680E4942
:104E40000A40DA601A680D490A4001211A609A681E
:104E50008A439A601A680A490A401A60DA6809495E
:104E60000A40DA6000221A618022074B12059A601C
:104E70007047C046001002400C40FF88F6FFF6FE67
:104E8000FFFFFBFFFFFF02FF00ED00E010B514483D
:104E900000F0A6F8134800F0A3F8134800F0A0F8BB
:104EA000124800F09DF8124800F09AF8114800F0FE
:104EB00097F8114800F094F80A2000F079F80F48AC
:104EC00000F08EF80E4800F08BF80E4B1868C0B258
:104ED00000F0D8F800F018F80A2000F069F810BDCA
:104EE000BB5E0008D75E0008AB5F0008DB5E000811
:104EF000E75E0008EA5E0008F35E0008FB5E00085B
:104F0000075F000814020020F7B500200127060003
:104F1000164B174A1B6812689C460192154B164A9D
:104F20001B681168154A9C450DD1002E02D06346BE
:104F3000104C2360002801D00F4B19604023D16929
:104F4000194211D0F7BD8025D4692C42EBD0019CC9
:104F5000002C04D00A480131C05C90623800FF2266
:104F6000013313403E00DDE7C046E8E75802002069
:104F700024000020540200204C0200200044004085
:104F800000060020034A04491368C8540133DBB209
:104F900013607047580200200006002010B504007E
:104FA0002078002800D110BD0134FFF7EBFFF7E7B0
:104FB000084B1B68002B09D08022074BD96911428E
:104FC00005D0064A98621368013313607047C046E3
:104FD000F4E7C04624000020004400404C020020BA
:104FE00010B504002078002800D110BD0134FFF76F
:104FF000DFFFF7E770B504000F26144D030FE85CE0
:10500000FFF7C0FF23163340E85CFFF7BBFF231513
:105010003340E85CFFF7B6FF23143340E85CFFF74A
:10502000B1FF23133340E85CFFF7ACFF231233409A
:10503000E85CFFF7A7FF23113340E85C3440FFF73B
:10504000A1FF285DFFF79EFF70BDC046125F0008FC
:1050500070B50F2604000A4D03133340E85CFFF7D8
:1050600091FF23123340E85CFFF78CFF231133409C
:10507000E85C3440FFF786FF285DFFF783FF70BDD3
:10508000125F000870B5064D03090400E85CFFF7E5
:1050900079FF0F231C40285DFFF774FF70BDC046E9
:1050A000125F0008F0B5FF25002601270B4B0C48C6
:1050B0005B6802680B4CD31821685B422B40CB1A0B
:1050C000994204D1002E01D021600260F0BD002978
:1050D000F8D001322A4001393E00F1E75800024081
:1050E000500200204C02002010B5FFF70DFFFFF723
:1050F000CDFE2D48FFF774FFFFF7D4FF2B48FFF7D5
:105100006FFF2B48FFF76CFFFFF7CCFF2948FFF735
:1051100067FF2948FFF764FFFFF7C4FF274B1B68B1
:10512000002B02D02648FFF75BFF264B1B68002BA5
:1051300002D02548FFF754FF0A20FFF739FFFFF799
:10514000B1FF2248FFF74CFF2148FFF749FF0A2033
:10515000FFF72EFFFFF7A6FF1E48FFF741FF1E488F
:10516000FFF73EFF0A20FFF723FFFFF79BFF1B48D7
:10517000FFF736FFFFF796FF1948FFF731FF0A20C8
:10518000FFF716FFFFF78EFF1648FFF729FF1648B7
:10519000FFF726FF1548FFF723FF0A20FFF708FF58
:1051A000FFF780FF10BDC046AE5F0008C35F000878
:1051B000F85F0008256000085F60000840020020DA
:1051C0009960000828020020D060000802610008F1
:1051D000296100085861000885610008B061000875
:1051E000E96100081D6200084C6200086B6200085B
:1051F000F7B50122374B1968914319608B2189005B
:10520000D960A02118684901014319601968324822
:10521000114319600021314B1B68446A9DB25E1C2A
:10522000A5421ED1002901D02C4A13600024012080
:1052300025002B4A2949126809680194002B13D1D3
:10524000002D01D0254B1960002C01D0244B1A6091
:10525000BFF34F8F234B244ADA60BFF34F8FC04612
:10526000FDE733001100D8E7204E214F37601A4E7A
:105270008FB2766AB74211D01F250131294205D17C
:1052800040271C4D2E683E421BD06F81019ECD1AD7
:105290003F2E19DC184EB54219D80500FF27174ECE
:1052A0007668961976423E42C8D0154CA65C01320B
:1052B0003A400400792EC1D1019B013301930B00C8
:1052C000BCE740262E81E1E7FA26F600E3E7050079
:1052D0000023E3E70044004000080140F4020020FE
:1052E0005002002000ED00E00400FA05003000400C
:1052F000AAAA0000100000503075000058000240BB
:1053000000050020F0B50378C54E1A00040030688F
:10531000303AC3B0824208D02A2B51D1C14DC24F7E
:1053200040002F60FEF73CFA2F60651C290002A8A0
:1053300000F0DEFA02A800F0F4FA02AB1B782C2B86
:1053400003D1FA208000FEF72BFA02AB1B782E2B3C
:105350004AD100240A27B54AD333516BFF330B439C
:1053600053630721B24BB3485A6903268A435A61F3
:105370005A6922435A61FFF711FEE0B2FFF782FE3D
:10538000AD4D013E2800FCF76FFC39002800FCF70A
:10539000B5FC2800FCF710FD0190A848FFF7FEFDC2
:1053A0000198FFF755FE002EEAD138000134FFF7CF
:1053B000E9FD082CD5D12800FCF782FC43B0F0BDF4
:1053C0006378422BFAD1A3784F2BF7D1E3784F2B98
:1053D000F4D12379542BF1D163794C2BEED1A379FD
:1053E0000A2BEBD1FFF704FF0322954902A800F036
:1053F00087FA0322002833D102AB9249981800F0B3
:105400007FFA002802D1FEF7A9FED7E702AB0522FA
:105410008D49D81C00F074FA002807D1FEF79EFED3
:1054200080238A4ADB055A639A63C7E71F222179E2
:10543000874B1140585C617900031140595C0902A7
:105440004018A1791140595C09014018E1790A40DE
:105450009B5CC0187F4B9842B0DCFEF7F9FDADE7CE
:105460007D4902A800F04CFA002804D1FFF74CFD5A
:10547000FFF70CFDA2E70222784902A800F040FAEB
:10548000002818D17648FFF789FD3068C0B2FFF7D1
:10549000F9FD2D20FFF776FD724B1868FFF7D8FD58
:1054A0002D20FFF76FFD704B1868FFF7D1FD0A2024
:1054B000FFF768FD82E76D4B1B68002B19D00222B5
:1054C0006B4902A800F01CFA002812D16948FFF7C6
:1054D00065FD3068C0B2FFF7D5FD2D20FFF752FD06
:1054E000654B1868FFF7B4FD2D20FFF74BFD634BAC
:1054F000DAE7634B1B68002B12D00222614902A835
:1055000000F0FEF900280BD15F48FFF747FD306837
:10551000C0B2FFF7B7FD2D20FFF734FD5B4BC3E7AB
:1055200002225B4902A800F0EBF900282BD1E378B6
:105530002B2B04D132210130FEF716FA3EE72D2B3A
:1055400001D13221F8E72E2B04D13221FA20FEF7C7
:105550002DFA33E73D2B00D030E71F2221793C4B59
:105560001140585C617900031140595C09024018F0
:10557000A1791140595C09014018E1790A409B5C0E
:105580003221C018E3E70222424902A800F0B8F92C
:10559000002823D11F216379A0792D4A0B400840B0
:1055A000D35C105C1B0300021B18E0790840105C00
:1055B00000011B18207A0140525C9B1802AA9278C5
:1055C000502A02D1344A1360F8E6492A01D1334AFD
:1055D000F9E7442A00D0F1E6314AF4E702223149E2
:1055E00002A800F08DF9002860D12F48FFF7D6FC03
:1055F0003068C0B2FFF746FD2D20FFF7C3FC264BF5
:105600001868FFF725FD2D20FFF7BCFC234B186819
:10561000FFF71EFD2D20FFF7B5FC214B44E7C046E8
:105620001402002000300040AAAA0000001002402E
:1056300000240140425F0008F0030020455F00089D
:10564000495F00084D5F0008515F0008FFFF000040
:10565000225F0008FF0F0000575F00085B5F000833
:105660005E5F00081C0000200C00002040020020AB
:10567000615F0008645F0008E8040020D80400208F
:1056800028020020675F00086A5F0008E00400202D
:105690006D5F0008705F00081800002014000020F3
:1056A00010000020735F0008765F00080222414965
:1056B00002A800F025F9061E0AD1E3783E4C2B2BF8
:1056C00002D12A3B236079E6FFF71EFC266075E6CF
:1056D00005223A49280000F013F900281BD1384C64
:1056E000384D2560FEF7C4FCFFF70EFC3648FFF787
:1056F00077FCFFF709FC8023344A2560116D1B04F9
:105700000B431365BFF34F8F314B324ADA60BFF35F
:105710004F8FC046FDE705222F49280000F0F0F822
:1057200000281FD1FEF7A4FCFFF7EEFB2B48FFF784
:1057300057FCFFF7E9FB3220FEF732F8FFF7E4FBF6
:105740001F4B274A1A60274A1A6007225A60063AF6
:105750009A60DA68002A03D11A4A1A60C046FDE747
:10576000C046F6E706222049280000F0C9F80028C4
:105770000FD1FEF77DFCFFF7C7FB1C48FFF730FC9D
:10578000FFF7C2FB3220FEF70BF8FFF7BDFBFEF779
:10579000B5F802221649280000F0B2F8002802D11C
:1057A000FFF7A2FC0AE61348FFF7F8FB2800FFF713
:1057B000F5FB03E6795F0008240000207C5F000809
:1057C00000300040AAAA0000825F000800100240DA
:1057D00000ED00E00400FA058A5F00089A5F000807
:1057E000CCCC000055550000905F0008975F000882
:1057F000A75F0008AA5F000870B5104C23680A284C
:1058000001D00D280BD10A2200250D48C2549A1C44
:10581000C31822605D70FFF775FD256070BD082814
:1058200004D1002BFAD0013B2360F7E7FD2BF5DC18
:105830005A1C2260024AD054F0E7C04648020020B9
:10584000000700200D488546002103E00C4B5B5803
:10585000435004310B480C4B42189A42F6D30B4A82
:1058600002E0002313600432094B9A42F9D3FFF798
:10587000DFFA00F011F8FEF7F1F8FEE7FF1F002055
:10588000DC63000800000020F8010020F80100207F
:1058900000080020FEE7000070B500260C4D0D4CFE
:1058A000641BA410A64209D1002600F01DFA0A4D7F
:1058B0000A4C641BA410A64205D170BDB300EB587E
:1058C00098470136EEE7B300EB5898470136F2E708
:1058D000D4630008D4630008D4630008D8630008C8
:1058E00003001218934200D1704719700133F9E791
:1058F00003000A7801311A700133002AF9D1704788
:10590000002330B59A420AD0013AC45CCD5CAC4267
:1059100004D1934202D00133002CF6D1631B18004E
:1059200030BDF8B50500040003262778002F01D10B
:105930002800F8BD00F00AF8C01942783240022A67
:1059400000D1203F27700134EFE70000044B1B68B3
:105950001B6A002B00D1034BEC3318687047C0461C
:10596000280000208C00002082B0002900D101A96D
:10597000101E06D0002B06D013780B601078431E43
:10598000984102B0704702204042FAE70B1E04D053
:10599000FF2A04D98A2303608B3B180070470A70E2
:1059A0000123FAE710B500F001F810BDF7B5FF25A7
:1059B0004A0001915208ED05AA4204DC43000700A9
:1059C0005B08AB4202DDFAF751FDFEBDFE24A405E3
:1059D000A14202D100F072F8F7E702268C1734409A
:1059E000C60F3443002B05D1022C50D0032CECD130
:1059F0002948EAE7002A03D1002F4ADA2748E4E7DA
:105A0000AA4217D193420BD1022C05D0032C05D00A
:105A1000012C3AD12248D8E72248D6E72248D4E7D9
:105A2000022C34D0032CE3D00020012CCDD18020D7
:105A30000006CAE7AB42DFD09B1ADB153C2B14DC17
:105A4000002901DA3C3312DBFAF7AAFE00F048F92C
:105A500000F034F8012C0CD0022C0ED0002CB4D065
:105A60001249FAF703FD12490CE01248F2E7002050
:105A7000F0E780231B06C018A7E70C49FAF7F6FCED
:105A8000011C0B48FBF796F99FE70B489DE7084878
:105A90009BE7084899E7C046DB0F49C0DB0FC9BF49
:105AA000DB0F49BFE4CB1640E4CB16C02EBDBB33A1
:105AB000DB0F4940DB0FC93FDB0F493FF7B5714BA7
:105AC0004500041C01906D089D420FDDFF23DB059E
:105AD0009D4204DD011CFAF7C9FC041C04E0019B93
